:020000040800F2
:1000000000280020892A0008D12A0008D12A0008E7
:10001000D12A0008D12A0008D12A000800000000D7
:10002000000000000000000000000000D12A0008CD
:10003000D12A000800000000D12A00089B190008FE
:10004000D12A0008D12A0008D12A0008D12A0008A4
:10005000D12A0008D12A0008891A00088F1A00083E
:10006000951A00089B1A0008A11A0008D12A000856
:10007000D12A0008D12A0008D12A0008D12A000874
:10008000D12A0008D12A0008D12A0008D12A000864
:10009000D12A0008D12A0008D12A0008A71A00088E
:1000A000D12A000875170008D12A0008891700080E
:1000B0008D170008A117000800000000D12A0008D1
:1000C000D12A00080000000000000000D12A00082A
:1000D00000000000C9240008E1240008000000001E
:1000E000BD1A0008D12A0008D12A0008000000002B
:1000F0000000000000000000000000000000000000
:0C01000000000000000000005FF808F1A3
:10010C00034613F8012B002AFBD1181A013870474B
:10011C0010B5054C237833B9044B13B10448AFF335
:10012C0000800123237010BD780000200000000027
:10013C001030000808B5034B1BB103490348AFF35B
:10014C00008008BD000000007C000020103000087A
:10015C0010B50121134C0E2002F0B6FC00210F202B
:10016C0002F0B2FC06224FF4E131204602F0ACFB67
:10017C00322002F085FD20460B4902F02DFC204672
:10018C000A4C0B4902F028FC204600F09FF8642032
:10019C0002F076FD204600F026FA2046BDE810401D
:1001AC0000F0E8B8C400002028300008A4000020AB
:1001BC003B30000873B50F2002F020FD002814BF5F
:1001CC0001200020264B27491870274B05D00A78B0
:1001DC001AB91A7882F001021A700870197801B1F4
:1001EC0001210E2002F0CEFC02F046FD1F4B204AEE
:1001FC0018601368C31AB3F5FA7F11D31D4D106044
:10020C001D4800F0F0F92C6864B1012C1AD01A4882
:10021C0000F0B0F82B680133012BC8BF00232B6012
:10022C0002B070BD23460A2221461348009400F008
:10023C00B7F90A2322460093012123460E4800F009
:10024C00AFF9E4E700260A22334621460A48009615
:10025C0000F0A6F90A233246009331463346EDE707
:10026C00A2000020A1000020A00000209C00002083
:10027C009800002094000020A400002010B500225B
:10028C000549064802F0A2FABDE8104052230D229F
:10029C000221034800F06EB900380140C400002070
:1002AC00A4000020014800F003B800BFA400002007
:1002BC0010B50446C06802F00BFDB4F90600002826
:1002CC0002DB002102F000FC204610BD10B50446F4
:1002DC00B0F90600002807DB012102F0F5FB002134
:1002EC00B4F9060002F04EFC0123637010BD70B52A
:1002FC000446C0680E4602F0EBFCE57C237C9D4274
:10030C0014BF042503257543ADB22846A58002F021
:10031C00D7FCE06028B12A46002102F08FFD6680F0
:10032C0070BD0646A080FAE7F0B4FF29C1F381073F
:10033C00C1F38112C1F30115477401F003078CBF9F
:10034C00002101210170C168C47C067CC274057453
:10035C00877461B1A41B6142A2EB050561416A423D
:10036C006A41914203D0F0BC4188FFF7C0BFF0BC9A
:10037C00704700002DE9F84FC3680446002B00F0CD
:10038C00888002F07BFC6369984201D26061F8E7D7
:10039C00C01AB0F5967FF4D372B64FF0E022E36842
:1003AC00A5883D4994F80090D2F814C01D44976973
:1003BC0013F8010BA669D1F800E0B9F1000F30D0A9
:1003CC00DFF8D8903649DFF8DC80BEFBF1F1BEFBDC
:1003DC00F8F8BEFBF9FEA1EB0808A1EB0E090139F8
:1003EC00516100214FF0800E9161E169C1F30F2141
:1003FC0010EA0E0F0CBFC246CA463161D2F818B0D3
:10040C00D345FBD85FEA5E0E716105D1AB4237D2A2
:10041C004FF0800E13F8010BD2F818B0D345FBD96E
:10042C00E6E72149DFF88480DFF884A0BEFBF1F118
:10043C00BEFBF8F8BEFBFAFEA1EB0808A1EB0E0E12
:10044C0001395161C2F81890E169C1F30F2980217B
:10045C0008420CBFC246F246C6F81090D2F818B04B
:10046C00D345FBD84908C6F8149004D1AB4207D247
:10047C00802113F8010BD2F818B0D345FBD9E7E76C
:10048C004FF0E023C3F814C09F6162B602F0F6FB94
:10049C006061BDE8F88F00BF20000020D01213006F
:1004AC0000350C00A0252600801A060080841E0052
:1004BC0035B70C0038B5437805460C4633B1B0F966
:1004CC000600002802DB002102F0FEFA6B78EC80BB
:1004DC003BB10121204602F0F7FA0021204602F040
:1004EC0051FBE2B2222A0BDC1E4904F4E06351F802
:1004FC00221011F0C00F43EA010312D0002315E0C3
:10050C0004F0C003C02BF9D1C92AF7DC164B04F058
:10051C003F0153F82100134904F4E06351F8201013
:10052C00E7E71249C3F3031351F82330222AAB61D6
:10053C0009DC0C4B53F8223003F00F030C4A52F831
:10054C002330EB6138BD04F0C003C02B07D1C92A9E
:10055C0005DC054B04F03F0453F82420E9E70F2396
:10056C00ECE700BF603300083833000808000020B7
:10057C0064300008F8B5002504460F4616461946A7
:10058C0045700572C5604561FFF7CEFE39462046C1
:10059C00FFF7ADFE20463146FFF78CFF2046F8BD35
:1005AC00F0B50C4641889DF81460A1421AD9017A25
:1005BC0029B14A434B437143120A1B0A0E0AC57CEC
:1005CC00077CC168AF421BBF01EB8401002404EB24
:1005DC0044044C5508BF0919047C0A55427C8B54C1
:1005EC00837CCE54F0BD82880021C06802F026BC0A
:1005FC007047000038B50E4B05461A784FF47A73E5
:10060C00B3FBF2F30B4A1068B0FBF3F000F09CF86C
:10061C00044658B90F2D09D8024629464FF0FF3031
:10062C0000F042F82046044B1D6038BD0120FCE769
:10063C00000000202000002004000020074A08B51C
:10064C001368032043F01003136000F01BF8002024
:10065C00FFF7D0FFFFF7CCFF002008BD00200240C1
:10066C00034A044B11681B780B441360704700BF9E
:10067C00DC01002000000020014B1868704700BF0F
:10068C00DC01002007490302CA6803F4E06322F48A
:10069C00E0621204120C134343F0BF6343F40033C3
:1006AC00CB60704700ED00E0154B30B5DC68C4F34F
:1006BC000224C4F10703251D042B28BF0423062D97
:1006CC004FF0FF3594BF0024033C05FA03F321EAF5
:1006DC000303A54022EA0502A340002843EA0203D3
:1006EC00ACBF00F16040074A4FEA0313DBB2ABBF6B
:1006FC0000F5614000F00F0080F80033135430BD5A
:10070C0000ED00E014ED00E0002807DB01234109B7
:10071C00034A00F01F00834042F82130704700BFAD
:10072C0000E100E000280CDB01220649430900F03F
:10073C001F008240203341F82320BFF34F8FBFF3BB
:10074C006F8F704700E100E00138B0F1807F0BD271
:10075C004FF0E023F021054A586182F82310002065
:10076C00072298611A6170470120704700ED00E084
:10077C00002808DB01224309034900F01F008240D6
:10078C00603341F82320704700E100E0704708B562
:10079C00FFF7FCFF08BD704710B5044650B1437914
:1007AC0003F0FF0213B90271FFF7F5FF01230020DC
:1007BC00637110BD0120FCE790F821200346022A4A
:1007CC0006D0042282630120002283F82020704787
:1007DC000268C06B116821F00E011160116821F0E4
:1007EC000101116001211A6C01FA02F24260002031
:1007FC0083F82110E8E7000008B590F82130022BAF
:10080C0003D004238363012008BD03681A6822F017
:10081C000E021A601A6822F001021A60174A9342FB
:10082C001FD0143293421ED0143293421DD0143276
:10083C0093421DD0143293421DD01432934214BFF4
:10084C004FF080734FF480130D4A5360012380F8EE
:10085C002130002380F82030436B03B198470020EF
:10086C00D2E70123F0E71023EEE74FF48073EBE7B8
:10087C004FF48053E8E74FF48033E5E7080002407B
:10088C0000000240044A08B55169014202D050618F
:10089C0001F0DEF808BD00BF000401402DE9F34172
:1008AC00054638B30368DB0710D42B689F075ED46A
:1008BC002B68190700F195802B685A0700F1C1804D
:1008CC00EB69002B40F02C81002029E0904C6368F0
:1008DC0003F00C03042B07D0636803F00C03082B04
:1008EC000AD16368DE0307D523689C03DDD56B68EA
:1008FC00002BDAD1012013E06B68B3F5803F12D1E5
:10090C00236843F480332360FFF7B6FE0646236862
:10091C009803CAD4FFF7B0FE801B6428F7D90320D4
:10092C0002B0BDE8F0819BB9236823F480332360C7
:10093C00236823F480232360FFF79EFE064623687A
:10094C009903B2D5FFF798FE801B6428F7D9E6E728
:10095C00B3F5A02F236803D143F480232360CFE7A2
:10096C0023F480332360236823F48023CBE7684C83
:10097C00636813F00C0F07D0636803F00C03082BAB
:10098C0010D16368DA030DD423689B0702D52B6959
:10099C00012BAFD123686A6923F0F80343EAC20341
:1009AC00236085E72A695B4B6AB101221A60FFF765
:1009BC0063FE064623689F07ECD4FFF75DFE801BA1
:1009CC000228F7D9ABE71A60FFF756FE06462368F4
:1009DC0098077FF56DAFFFF74FFE801B0228F6D905
:1009EC009DE7AA694A4E4B4BE2B10122C3F8802421
:1009FC00FFF742FE0446736A9B070DD54FF4FA527B
:100A0C00454B1B68B3FBF2F3019300BF019B5A1ECD
:100A1C000192002BF9D14FE7FFF72EFE001B0228A5
:100A2C00E9D97CE7C3F88024FFF726FE0446736AF5
:100A3C009F077FF541AFFFF71FFE001B0228F6D979
:100A4C006DE7334CE369D80024D40127E36943F004
:100A5C008053E361E36903F080530093009B2F4EB6
:100A6C003368D90518D5EB68012B26D1236A43F0DE
:100A7C0001032362FFF700FE41F288380646236A21
:100A8C009B073FD5002F3FF41BAFE36923F0805346
:100A9C00E36115E70027E2E7336843F480733360C2
:100AAC00FFF7EAFD80463368DA05DCD4FFF7E4FD96
:100ABC00A0EB08006428F6D931E7ABB9236A41F200
:100ACC00883823F001032362236A23F00403236292
:100ADC00FFF7D2FD0646236A9807D3D5FFF7CCFD66
:100AEC00801B4045F7D91AE7052B236A03D143F045
:100AFC0004032362BAE723F001032362236A23F081
:100B0C000403B6E7FFF7B8FD801B4045B7D906E7ED
:100B1C000010024000004242200000200070004003
:100B2C002A4C626802F00C02082A3ED00022022BEA
:100B3C00274B1A662CD1FFF79FFD064623689901B7
:100B4C0020D42B6AB3F5803F05D16268A96822F4E2
:100B5C0000320A436260696A62680B4322F47412C1
:100B6C001343012263601A4B1A66FFF785FD054695
:100B7C0023689A013FF5A8AEFFF77EFD401B0228C3
:100B8C00F6D9CCE6FFF778FD801B0228D6D9C6E64D
:100B9C00FFF772FD054623689B017FF595AEFFF7C5
:100BAC006BFD401B0228F6D9B9E6012B3FF4A2AE2F
:100BBC0060682B6A00F480329A427FF49BAE6B6AB9
:100BCC0000F47010C01A18BF0120A9E600100240F2
:100BDC00000042420D4A536803F00C01082912D15F
:100BEC000B48C3F38341DB03405C09D55368094AC6
:100BFC00C3F340435043084AD35CB0FBF3F0704757
:100C0C00064B584370470348704700BF0010024022
:100C1C005130000800127A004F30000800093D00E6
:100C2C002DE9F0410D46044610B90120BDE8F081D4
:100C3C00444A136803F007038B4228D321688E07BC
:100C4C0030D4CA0743D43F4A136803F00703AB42BE
:100C5C0065D822683C4D12F0040F6CD1130706D5F1
:100C6C006B68226923F4605343EAC2036B60FFF79D
:100C7C00B1FF6B68354AC3F30313D35CD840344BD4
:100C8C001860344B1868FFF7B5FC0020CEE71368EA
:100C9C0023F007030B431360136803F007038B4225
:100CAC00C3D1CBE7284B11F0040F1EBF5A6842F496
:100CBC00E0625A60080742BF5A6842F460525A60B8
:100CCC005A68A06822F0F00202435A60B9E76268E1
:100CDC001D4E012A33681AD113F4003FA5D0736856
:100CEC0041F2883823F0030313437360FFF7C4FC0D
:100CFC0007467368626803F00C03B3EB820FA2D053
:100D0C00FFF7BAFCC01B4045F3D903208EE7022A3B
:100D1C0002D113F0007FE1E713F0020FDEE7136856
:100D2C0023F007032B431360136803F00703AB4254
:100D3C007FF47BAF8DE76B68E16823F4E0630B43D2
:100D4C006B608BE70020024000100240AC300008C2
:100D5C002000002004000020044B054A5B68C3F30C
:100D6C000223D35C034A1068D8407047001002403D
:100D7C00A430000820000020044B054A5B68C3F334
:100D8C00C223D35C034A1068D8407047001002405D
:100D9C00A43000082000002003682DE9F34105462B
:100DAC00D80721D5364CE369D9002BD40126E36949
:100DBC0043F08053E361E36903F080530193019B9B
:100DCC00304F3B68DA051FD5236A6A6813F4407309
:100DDC002ED1236A6A6823F44073134323621EB135
:100DEC00E36923F08053E3612A68910706D524490F
:100DFC00A8684B6823F4404303434B60D30636D4B6
:100E0C00002012E00026DBE73B6843F480733B6074
:100E1C00FFF732FC80463B68DB05D5D4FFF72CFC92
:100E2C00A0EB08006428F6D9032002B0BDE8F081DD
:100E3C0002F440729A42CCD00120134A236AC2F8C1
:100E4C004004002023F44071DF07C2F84004216203
:100E5C00BFD5FFF711FC41F288380746236A980783
:100E6C00B7D4FFF709FCC01B4045F7D9DCE7044AAF
:100E7C00E968536823F480030B435360C0E700BF59
:100E8C000010024000700040000042427047704762
:100E9C00036870B5DD681E690446B1070DD5AA0755
:100EAC000BD56FF002021A61012202779B699B0736
:100EBC0069D000F0CCFC00232377710710D56A07AA
:100ECC000ED56FF00402236820461A6102222277A5
:100EDC009B6913F4407F5CD000F0B9FC00232377AE
:100EEC0033070FD528070DD56FF00802236820466D
:100EFC001A6104222277DB69990750D000F0A7FC15
:100F0C0000232377F20610D5EB060ED56FF01002F6
:100F1C00236820461A6108222277DB6913F4407F8C
:100F2C0043D000F094FC00232377F00708D5E907A1
:100F3C0006D56FF00102236820461A6100F064FCAC
:100F4C00320608D52B0606D56FF0800223682046A2
:100F5C001A6100F08CF8700608D5690606D56FF09A
:100F6C004002236820461A61FFF791FFB20622D592
:100F7C00AB0620D56FF0200223682046BDE87040F8
:100F8C001A6100F073B800F060FC2046FFF77EFF9A
:100F9C0091E700F05AFC2046FFF778FF9EE700F03F
:100FAC0054FC2046FFF772FFAAE700F04EFC2046E7
:100FBC00FFF76CFFB7E770BD154A0368904206D087
:100FCC00B0F1804F03D0A2F59432904207D14A6819
:100FDC0023F070031343CA6823F4407313434A6924
:100FEC0023F08003134303608B68C3620B68836236
:100FFC00074B984204BF0B690363012343610369E8
:10100C00DB0742BF036923F001030361704700BF94
:10101C00002C014010B5044630B390F83D3003F07D
:10102C00FF021BB980F83C2001F076F802232068FF
:10103C0084F83D30211DFFF7BFFF0123002084F809
:10104C00463084F83E3084F83F3084F8403084F8E1
:10105C00413084F8423084F8433084F8443084F8CA
:10106C00453084F83D3010BD0120FCE770477047D7
:10107C00026802F10C0353E8003F23F490730C3226
:10108C0042E8003102680029F2D102F1140353E85E
:10109C00003F23F0010302F1140C4CE8003100294D
:1010AC00F3D1036B012B0BD102F10C0353E8003F7E
:1010BC0023F0100302F10C0C4CE800310029F3D1A1
:1010CC00202380F8423000230363704710B5044698
:1010DC000368C1681A6922F440520A431A61826893
:1010EC000069D9680243606921F4B05121F00C0108
:1010FC0002430A43DA605A69A16922F440720A4336
:10110C005A610E4A934215D1FFF736FE1923434319
:10111C00626820689200B3FBF2F36422B3FBF2F135
:10112C0002FB11331B013233B3FBF2F303EB01135C
:10113C00836010BDFFF710FEE8E700BF00380140E8
:10114C00704710B5044648B390F8413003F0FF02E5
:10115C001BB980F84020FFF7F3FF2423226884F8A2
:10116C004130D368204623F40053D360FFF7AEFF21
:10117C00236800201A6922F490421A615A6922F0FD
:10118C002A025A61DA6842F40052DA602023606461
:10119C0084F8413084F84230606310BD0120FCE7D4
:1011AC0010B5044668B390F8413003F0FF021BB948
:1011BC0080F84020FFF7C4FF2423226884F84130D4
:1011CC00D368204623F40053D360FFF77FFF2368D6
:1011DC0000201A6922F490421A615A6922F0220204
:1011EC005A615A6942F008025A61DA6842F40052B4
:1011FC00DA602023606484F8413084F84230606304
:10120C0010BD0120FCE790F84130202B10D189B1A2
:10121C0082B1C2848284002321220162016843646A
:10122C0080F84120CA68184642F08002CA607047B4
:10123C00022070470120704708B50023406AC3851F
:10124C00C38401F0FDF808BD704790F8423007B533
:10125C00222B42D181680268B1F5805F836A3FD14D
:10126C00016900293FD15268C2F3080223F8022B0E
:10127C008362C38D013B9BB2C385002B2DD10268C9
:10128C00D16821F02001D160D16821F48071D16046
:10129C00516921F001015161202280F84220436301
:1012AC00026B012A026828D1036302F10C0353E894
:1012BC00003F23F0100302F10C0C4CE80031002924
:1012CC00F3D11368DB0605D50191136801935368BC
:1012DC000193019B818DFFF7B7FF03B05DF804FB11
:1012EC0039B9016929B95268D2B21A70836A0133CB
:1012FC00BEE7526802F07F02F7E701F09BF8ECE7DB
:10130C00036873B51A6804461607D9685D6908D175
:10131C00960668D58D0666D502B0BDE87040FFF71D
:10132C0094BF05F0010001F4907505435BD0D6071E
:10133C0005D5CD0542BF636C43F0010363645307CD
:10134C0004D518B1636C43F002036364960704D5AB
:10135C0018B1636C43F004036364150707D501F0FF
:10136C00200303431EBF636C43F008036364636C88
:10137C00002B32D0920604D58B0602D52046FFF7FF
:10138C0064FF266820467369626C03F0400302F028
:10139C00080253EA020522D0FFF76AFE73695E0663
:1013AC0018D5226802F1140353E8003F23F04003E0
:1013BC00143242E800310029F3D1E06B50B1744B88
:1013CC004363FFF719FA40B1E06B436B02B0BDE821
:1013DC0070401847204601F033F802B070BD01F0A0
:1013EC002FF86564F9E7206B012840F09480D5064E
:1013FC0040F19180C80640F18E80002201921A685B
:10140C0001925A680192019A5A6952064DD5E16BC4
:10141C000A68526892B2002ADFD0A08D9042DCD9C3
:10142C00E2858A69202A36D003F10C0252E8002F9B
:10143C0022F4807203F10C0040E800210029F3D162
:10144C0003F1140252E8002F22F0010203F1140000
:10145C0040E800210029F3D103F1140252E8002FD7
:10146C0022F0400203F1140040E800210029F3D1DE
:10147C00202284F84220216303F10C0252E8002F51
:10148C0022F0100203F10C0040E800210029F3D1F6
:10149C00E06BFFF791F902236363E38DA18DC91A09
:1014AC0089B22046FFF7D0FE97E7E28DE08DA18D43
:1014BC0080B292B2002890D0891A89B200298CD0BF
:1014CC0003F10C0252E8002F22F4907203F10C0588
:1014DC0045E800200028F3D103F1140252E8002F54
:1014EC0022F0010203F1140545E800200028F3D195
:1014FC00202284F84220206303F10C0252E8002FD2
:10150C0022F0100203F10C0545E800200028F3D16D
:10151C0002236363C5E7160628D50D0626D594F875
:10152C004120212A7FF459AFA168226AB1F5805F6E
:10153C0017D12169A9B932F8021BC1F3080159600E
:10154C002262E28C013A92B2E284002A7FF445AF27
:10155C00DA6822F08002DA60DA6842F04002DA607F
:10156C003BE7511C216212785A60EAE750067FF57E
:10157C0034AF4A067FF531AFDA68204622F04002DC
:10158C00DA60202384F8413000F057FF25E700BFD4
:10159C004512000890F84030012B11D0242302682A
:1015AC0080F84130D36823F00C0343F00803D36078
:1015BC00202380F84130002380F8403018467047D3
:1015CC000220704790F84030012B11D02423026880
:1015DC0080F84130D36823F00C0343F00403D3604C
:1015EC00202380F84130002380F8403018467047A3
:1015FC000220704790F8412090F842001043704749
:10160C000023C285436422238285026980F842301C
:10161C00816203681AB1DA6842F48072DA605A693E
:10162C00002042F001025A61DA6842F02002DA60CE
:10163C00704770B490F84260202E06D141B13AB197
:10164C000024046370BCFFF7DBBF022070BC704742
:10165C000120FBE7836810B504462BB10322014639
:10166C0098470023C4E9023310BD836810B50446C3
:10167C0013B1032201469847204610BD084B9842EF
:10168C0007D0B0F1804F06D0A3F59433984204D024
:10169C00FEE700207047012070470220704700BF12
:1016AC00002C0140024670B5044652F8100FFFF7AB
:1016BC00E5FF0546104600F0DBFC0023084AE3601A
:1016CC0042F8253004F1600604F1B005B54204D0AF
:1016DC00103D2846FFF7C9FFF8E7204670BD00BF54
:1016EC00E0010020F8B504460846FFF7C7FF236960
:1016FC0003B1FEE71B4D04F10C0245F820200E222D
:10170C0004F110063046C4E90C33C4E90E33C4E9C5
:10171C001033C4E91623216184F82C30A36484F8B7
:10172C004C3084F84D30E46000F06EFC04F1600540
:10173C0004F1B00728461035FFF78CFFBD42F9D1F4
:10174C0000234FF6FF72C4E90033C4E90632C4E942
:10175C000833A360636180233046A362BDE8F84080
:10176C00FFF758BCE0010020034B186810B104309F
:10177C00FFF78EBB704700BFE0010020FFF7F4BFFE
:10178C00034B586810B10430FFF782BB704700BFA1
:10179C00E0010020034B986810B10430FFF778BBD0
:1017AC00704700BFE00100200022C0E90022C0E920
:1017BC0002227047F8B504460E4600F1600500F1B0
:1017CC00B00728461035FFF7EFFFBD42F9D10023D3
:1017DC00204631462361FFF785FF2046F8BD82681D
:1017EC0010B50AB901F00AFCC368BDE810401847EF
:1017FC0008B500B9FEE700F005FC0068836E13B174
:10180C006030FFF7ECFF08BDFFF7F2BF10B500B971
:10181C00FEE7037F013B072B10D8DFE803F004142D
:10182C000F100F0F0F12012400F0ECFB00680634B0
:10183C0000EB041083680BB1FFF7D1FF10BD03243C
:10184C00F2E70424F0E70224EEE7FFF7DFBFFFF72F
:10185C00DDBF01F035BA01F03BBA000084B00328BB
:10186C0034D8DFE800F0020F1B27194B19489A698E
:10187C0042F004029A619B6903F004030093009BFD
:10188C0004B07047124B14489A6942F008029A61EE
:10189C009B6903F008030193019BF1E70C4B0F4884
:1018AC009A6942F010029A619B6903F0100302934B
:1018BC00029BE5E7064B0A489A6942F020029A61BE
:1018CC009B6903F020030393039BD9E70020D7E720
:1018DC000010024000080140000C014000100140C3
:1018EC0000140140F8B51449074600F043FBFFF71C
:1018FC00C5FE124E044656F8203073B9B020FFF7DF
:10190C00A8FF0D490546384600F034FB0146284631
:10191C00FFF750FF56F824301D6056F824301C6831
:10192C0044B12046FFF7BEFE2046BDE8F840B0218A
:10193C00FFF791BFF8BD00BF64310008E001002043
:10194C0037B54FF0E025FEF797FEAB6904460093E0
:10195C00FEF792FEAB698442019369694FF47A7386
:10196C0001F1010108D0019A8A1A5A43B2FBF1F233
:10197C0003FB002003B030BD009A8A1A5A43B2FB15
:10198C00F1F203FB0420F5E7FEF776BE704708B5CD
:10199C00FEF766FEFEF7FBFEFFF7F8FF08BD70478B
:1019AC000F4B84B0DA6942F08052DA61DA6902F0E6
:1019BC0080520192019A9A6942F001029A619A69E5
:1019CC0002F001020292029A5A6942F040025A61F4
:1019DC005B6903F040030393039B04B0704700BFA3
:1019EC00001002400C4BD3F8FC20D2015EBFD3F8A0
:1019FC00FC2042F08072C3F8FC200022074B5A6096
:101A0C001A6842F001021A6000BF00BF00BF58689C
:101A1C00B0FA80F04009704700ED00E0001000E0E3
:101A2C0008B5FFF7BDFFFFF7DDFFFEF707FEFFF779
:101A3C00B6FF00F087FDBDE808400148FEF7ACBEDC
:101A4C00180000200023C0E90033C0E902337047BE
:101A5C000023012803F101020AD11422DBB2534303
:101A6C00054A181D1044816829B11A441369184796
:101A7C0013464008EDE77047EC0100200120FEF70B
:101A8C0001BF0220FEF7FEBE0420FEF7FBBE0820BD
:101A9C00FEF7F8BE1020FEF7F5BE38B5052420255C
:101AAC00A8B2FEF7EFFE013C4FEA4505F8D138BD70
:101ABC0038B506244FF48065A8B2FEF7E3FE013C6E
:101ACC004FEA4505F8D138BD344A08B5104606230F
:101ADC0000F8043BFFF7B6FF072302F1180013755B
:101AEC00FFF7B0FF082302F12C0082F82830FFF733
:101AFC00A9FF092302F1400082F83C30FFF7A2FF56
:101B0C000A23172102F1540082F85030FFF79AFF94
:101B1C0002F1680082F86410FFF794FF02F17C0078
:101B2C0082F87810FFF78EFF02F1900082F88C108B
:101B3C00FFF788FF02F1A40082F8A010FFF782FFE4
:101B4C0082F8B410282102F1B800FFF77BFF02F1F4
:101B5C00CC0082F8C810FFF775FF02F1E00082F8A4
:101B6C00DC10FFF76FFF02F1F40082F8F010FFF7C2
:101B7C0069FF02F5847082F80411FFF763FF02F528
:101B8C008E7082F81811FFF75DFFBDE8084002F572
:101B9C00987082F82C11FFF755BF00BFEC010020A4
:101BAC0038B5054CA4F5A075143C201DFFF75DFD60
:101BBC00AC42F9D138BD00BF2C030020614B82B080
:101BCC009A69013842F001029A619B6903F00103A2
:101BDC000193019B23281AD8DFE800F0121B22295D
:101BEC002E353A41191919464D565B626B74798042
:101BFC008919191919198E95191919199A9FA6ADC0
:101C0C00514A536843F0E06343F00103536002B060
:101C1C0070474D4A536823F0010343F0E063F5E746
:101C2C00494A536843F0E06343F00203EEE7464A47
:101C3C00536823F00203F0E7434A536843F0E06330
:101C4C0043F00403E2E7404A536823F00403E4E75B
:101C5C003D4A536843F0E06343F00803D6E73A4A41
:101C6C00536823F00803D8E7374A536843F0E0631E
:101C7C0043F0C003CAE7344A536823F0C00343F06F
:101C8C00E06343F04003C1E72F4A536823F0C003DD
:101C9C00C3E72D4A536843F0E06343F44073B5E760
:101CAC00294A536823F4407343F0E06343F4007310
:101CBC00ACE7254A536823F4407343F0E06343F4E4
:101CCC008073A3E7204A536823F44073A5E71E4AA8
:101CDC00536843F0E06343F4406397E71A4A536850
:101CEC0023F4406343F0E06343F400638EE7164A49
:101CFC00536823F4406390E7134A536843F0E0635E
:101D0C0043F4004382E7104A536823F4004384E70A
:101D1C000D4A536823F0E06378E70B4A536823F0CD
:101D2C00E06343F0807371E7074A536823F0E06384
:101D3C0043F000736AE7044A536823F0E06343F00E
:101D4C00806363E7001002400000014091FAA1F3A8
:101D5C00B3FA83F370B50D0E0F2691FAA1F1B1FA17
:101D6C0081F144599B0006FA03F3890024EA030429
:101D7C008A402243425170BD91FAA1F3B3FA83F326
:101D8C0070B50D0E042691FAA1F1B1FA81F1445906
:101D9C009B0006FA03F3890024EA03048A402243D9
:101DAC00425170BD431C04D00C3151F80C3C5A1CF0
:101DBC0001D100207047834201F10C01F5D10120C3
:101DCC0070470000431C2DE9F34106460F4600D135
:101DDC00FEE7594B00F00F02C0F3031001F00708A7
:101DEC0053F82240FFF73AFDB8F1010F054615D123
:101DFC0094FAA4F3B3FA83F30321200E2A589B0020
:101E0C0001FA03F322EA030294FAA4F3B3FA83F37C
:101E1C009B00994011432950012213E0C7F306207F
:101E2C00B8F1030F0AD801A353F828F04B1E000891
:101E3C00251E0008AF1E0008BD1E0008FEE7FFF7B8
:101E4C00BDFE08222146284608F1FF38FFF77EFF29
:101E5C00B8F1010F06D817F0080218BF042221466A
:101E6C00FFF78AFF94FAA4F2230EB2FA82F2E95831
:101E7C000F239200934094FAA4F2B2FA82F2C7F3C1
:101E8C0001170B409200012F23FA02F312D0022FFC
:101E9C003BD0082B21D1042221462846FFF756FFC0
:101EAC001BE07F2801D10922CCE7FFF787FEFAE778
:101EBC000022C7E7042B04D1082221462846FFF74D
:101ECC0045FF230A93FAA3F3B3FA83F20123E968DB
:101EDC00934021EA14210B43EB60184B9A6942F0B2
:101EEC0001029A619B6903F001030193019BA6F126
:101EFC000D03012B14D8124A536823F0E06343F00E
:101F0C008063536002B0BDE8F081042B04D1082239
:101F1C0021462846FFF71AFFEB6823EA1423DBE778
:101F2C000F2E02D0133E012EECD8054A536823F035
:101F3C00E06343F00073E4E76430000800100240F3
:101F4C0000000140431C06D17047834202D18968CE
:101F5C00FFF738BF0C310B685A1CF6D1FEE70B6843
:101F6C005A1C01D100207047834201D14868704748
:101F7C000C31F4E7431C01D0FFF7F1BF0020704790
:101F8C004B6813B94FF0FF307047834201D108689A
:101F9C0070470C31F4E708B1FFF7F2BF4FF0FF3098
:101FAC00704703468B42084604D01BB100290CBF76
:101FBC0018460020704700000F4B1A6842F00102CF
:101FCC001A6059680D4A0A405A601A6822F08472E5
:101FDC0022F480321A601A6822F480221A605A683D
:101FEC0022F4FE025A604FF41F029A604FF0006216
:101FFC00034B9A60704700BF001002400000FFF8CE
:10200C0000ED00E0043870470368164A84B0934230
:10201C000BD1154B9A6942F400629A619B6903F4E7
:10202C0000630193019B04B07047B3F1804F0BD157
:10203C0003F50433DA6942F00102DA61DB6903F07B
:10204C0001030293029BEEE7084A9342EBD1064B45
:10205C00DA6942F00202DA61DB6903F002030393EE
:10206C00039BE0E7002C01400010024000040040FC
:10207C0003680E4A934206D102F56442936923F435
:10208C00006393617047B3F1804F05D1084AD3695F
:10209C0023F00103D3617047064A9342FBD102F54A
:1020AC000332D36923F00203F4E700BF002C014094
:1020BC000010024000040040431C0AD0094B984217
:1020CC000AD003F59433984208D0B0F1804F07D072
:1020DC00FEE76FF00D0070471D2070471920704708
:1020EC001C20704700040040431C0AD0094B984246
:1020FC000AD003F59433984208D0B0F1804F07D042
:10210C00FEE76FF00D0070471D2070471B207047D5
:10211C001C2070470004004038B50446FFF774FFDC
:10212C000068FFF7C9FFD4E91212FEF7BDFA206868
:10213C00FFF7C2FFFEF7E8FA22681046FFF7D4FF5C
:10214C0005461046FFF7B8FF85420BD0D4E91212B2
:10215C002846FEF7A9FA2068FFF7C6FFBDE838400D
:10216C00FEF7D2BA38BD00002DE9F04F85B0984685
:10217C000E9B04468A46406D544991460193FFF7E5
:10218C00F9FE53498346A06DFFF7F4FE514906460C
:10219C00E06DFFF7EFFE50490546206EFFF7EAFEB3
:1021AC000746BBF1000F00F08D80A26D013202D00A
:1021BC00002E00F08780E26D013202D0002D00F07D
:1021CC008180226E013201D0002F7BD031465846DF
:1021DC00FFF7E7FE29462060FFF7E3FE3946206053
:1021EC00FFF7DFFE206000286CD03C4B98424BD1AF
:1021FC0003F55843DA6842F48042DA60DA6822F474
:10220C008042DA609A6942F480429A619B6903F4D5
:10221C0080430293029B2523A4F864302B49606D04
:10222C00FFF790FE1EB12A49A06DFFF78BFE2DB172
:10223C002849E06DFFF786FE4FF480752FB12649D3
:10224C00206E45F40075FFF77DFE94F86520244B55
:10225C00271D43F8227023680022C4E9013A019B30
:10226C0094F96400C4E904380C230121C4E906354F
:10227C00C4F80C902262FEF717FA3846EEB905B096
:10228C00BDE8F04FFEF78CBF164B9842C6D103F554
:10229C00E6331A6942F400321A611A6922F40032E8
:1022AC001A61DA6942F40032DA61DB6903F4003353
:1022BC000393039B4FF49373AEE705B0BDE8F04F67
:1022CC00FEF73FBF05B0BDE8F08F00BF343100080A
:1022DC0004310008E0300008BC3000080038014030
:1022EC002C0300200044004010B4019C18B1019450
:1022FC0010BCFFF739BF10BC7047000008B5074B86
:10230C0090F8652053F82200FFF774F900F02200D2
:10231C00A0F122035842584108BD00BF2C030020F5
:10232C0008B5074B90F8652053F82200FFF762F9C7
:10233C0000F02100A0F121035842584108BD00BF14
:10234C002C03002070B50E46054610B94FF0FF3037
:10235C0070BDFFF7D3FF04460028F7D1294611F8CA
:10236C00663F0122337095F86500034B53F820004B
:10237C00FFF75FF92046EBE72C03002038B50D463C
:10238C000446B8B1FFF7BAFFA0B994F96400E5644C
:10239C00FEF7C8F994F86500074B04F1660153F891
:1023AC0020000122FFF745F994F96400BDE838409C
:1023BC00FEF7AAB938BD00BF2C03002038B515466E
:1023CC000446B8B1016590F96400FEF7ABF9B4F8B6
:1023DC007630E16E9BB294F865001944064BAAB2B4
:1023EC0053F82000FEF70FFF94F96400BDE8384065
:1023FC00FEF78AB938BD00BF2C03002048B1836DAD
:10240C00013306D190F86520024B53F82200FFF7F8
:10241C00C1B870472C03002048B1836D013306D13D
:10242C0090F86520024B53F82200FFF7CBB87047A9
:10243C002C030020836C04381847C36C04381847ED
:10244C0030B5044650F8043985B01D6815F0010507
:10245C0012D0002200921A6800925B680093009BD5
:10246C00FFF74CFF40BB0122204604F1620105B08E
:10247C00BDE83040FFF7DDB8196811F0020106D055
:10248C0001951A6801925B680193019BE8E71A6851
:10249C0012F0040206D002911A6802925B68029351
:1024AC00029BDDE719680907DAD503921A680392D3
:1024BC005B680393039BD3E705B030BD08B52520BB
:1024CC00FEF756F9024B1868BDE80840FEF718BF36
:1024DC002C030020262008B5FEF74AF9034B586858
:1024EC0018B1BDE80840FEF70BBF08BD2C03002057
:1024FC0003460A4910B508680344EFF30882934277
:10250C0005D90C224FF0FF30054B1A6010BD054A5F
:10251C00054C121B9342F4D20B60F7E72400002009
:10252C009C0500200028002000040000FEE70000AD
:10253C001622024B4FF0FF301A6070479C050020AA
:10254C000120704710B594B0142200210CA800F0A3
:10255C0075FC142200210DEB020000F06FFC102220
:10256C00002101A800F06AFC02244FF48033012200
:10257C00CDE91143CDE90A234FF4E0130AA80E92DA
:10258C001393FEF78BF900B1FEE70F23CDE9053469
:10259C004FF480630790CDE90830214605A8FEF77B
:1025AC003FFB00B1FEE7122301934FF40043CDE94A
:1025BC00033001A8FEF7F0FB00B1FEE714B010BD2C
:1025CC00B0F80831B0F80421981A00F03F007047B9
:1025DC00B0F80831B0F804219BB293421ABFD0F87E
:1025EC00FC30985C4FF0FF30704790F80631B0F833
:1025FC000A01C0B2834227BFC3F13F03C018C01AFF
:10260C0000F1FF30704707B503688DF80710012201
:10261C005B680DF10701984703B05DF804FB13B537
:10262C000DF107010446FFF78DFE88B9B4F874303C
:10263C00B4F87020013303F03F03934208D0B4F890
:10264C0074209DF80700A16E92B28854A4F87430DF
:10265C0002B010BDB0F87610826F10B50A4402F0CB
:10266C003F02A0F87620B0F87610B0F8722089B24C
:10267C008A421AD0B0F876404032A4B2B0F8761044
:10268C00121B544289B204F03F0402F03F02C1F124
:10269C00400158BF62428A4228BF0A4604498267F9
:1026AC00FFF78CFE4FF0FF3010BD0020FCE700BFA1
:1026BC00612600082DE9F843036804469B688846A8
:1026CC001646984701232374D4F8EC30B4F80671FD
:1026DC0001338146C7F1400709D194F8103133B169
:1026EC00002304F1940084F81031FFF787FE23686F
:1026FC0020469B6898470028F9D03546AF4225D331
:10270C004D4523D8B4F80631D4F800015A19402AA3
:10271C00184430D82A46414600F0CEFB2F46B4F878
:10272C0006311D4405F03F05A4F8065104F194054B
:10273C002846FFF7F5FD30B93A4628461549C4F846
:10274C000C71FFF73BFE3046BDE8F8834F4528BFC0
:10275C004F4623683A4641465B68204698472368B3
:10276C0020469B689847ED1BB844B4F80671814627
:10277C00C7F14007C2E7C3F140073A46414600F0B3
:10278C009BFBD4F80001EA1B08EB070100F094FB5B
:10279C00C5E700BF61260008C0F8F030009B9142ED
:1027AC0008BF4FF0FF31C0F8F43000F11103C0F84E
:1027BC00FC300023C0E93A2100F15102A0F80831A5
:1027CC00C0E94023A0F80A3170470000F7B54FF478
:1027DC007A7317460022C0E901231C4B04460360A0
:1027EC004FF0FF33C0F8EC30194B1A4E9C420D469B
:1027FC00F06A05D1B36AC4F8EC30C4F8E8000AE01A
:10280C001549FFF7B7FB854215D1B36AC4F8EC3014
:10281C00F36AC4F8E8304FF0FF33012F08BFC4F857
:10282C00EC3000932046D4E93A214FF0FF33FFF708
:10283C00B3FF03B0F0BD28460849FFF7ACFB0649CF
:10284C00C4F8EC002846FFF7A6FBD6E7FC330008DB
:10285C0034030020603300083431000804310008D0
:10286C00037C70B504460D46A3B1FDF705FF064683
:10287C00B4F80621B4F80A319BB29A420AD0002D62
:10288C00F8D0FDF7F9FE801B8542F1D8B4F80A3177
:10289C00A4F8063170BD0021FFF7E2BFD0F8EC3090
:1028AC0010B5013304460ED10368DB68984794F8E1
:1028BC00103143B9012304F1940084F81031BDE8C0
:1028CC001040FFF7A9BD10BD73B5144602F0070305
:1028DC00023BDBB2042B80F8112196BF1A4A00226E
:1028EC00D25C04F03003302B0546C0F8141107D12C
:1028FC004FF4C0630132082A09D0092A1BD0FEE725
:10290C0014F020031CD04FF480630132F3E7002253
:10291C00C4F3C00405F19406640330460094FFF739
:10292C00E3FC2846FFF7BAFF3046084902B0BDE881
:10293C007040FFF723BD4FF48052E9E71A46E7E7F2
:10294C00082AFBD0DBE700BFEC3300082B2600087D
:10295C0010B50446FFF7A2FFB4F80821B4F804310F
:10296C0092B29A4217BFD4F8FC204FF0FF30D05CE3
:10297C0001331CBF03F03F03A4F8043110BD000069
:10298C00002202490248FFF721BF00BF0038014076
:10299C003403002070B505460C46084649B1FDF7D6
:1029AC00AFFB2B68024621462846BDE870405B68A9
:1029BC00184770BD08B50249FFF7ECFF08BD00BF12
:1029CC004C30000838B50546FFF7E4FF04462846AE
:1029DC00FFF7F0FF204438BDFFF7F4BF10B50446F5
:1029EC0000F04AF9E060236820465B6998470028AC
:1029FC0008DA00F041F9E368C01AA3689842F2D3F0
:102A0C004FF0FF3010BDF8B507460D460C468E183A
:102A1C00B44201D1601BF8BD3846FFF7DFFF031E3F
:102A2C00F8DB04F8013BF3E72DE9F0410746884653
:102A3C0016461D4673B100243846FFF7CFFF031E20
:102A4C0005DB434503D033550134A542F4D1204670
:102A5C00BDE8F0811C46FAE708B50320FDF712FE2D
:102A6C00BDE8084000F028B908B5AFF30080FDF7C9
:102A7C006FFBFDF79FFB00F011F9FAE7FFF79CFAEB
:102A8C000B480C490C4A002302E0D458C4500433C0
:102A9C00C4188C42F9D3094A094C002301E0136095
:102AAC000432A242FBD300F0E1F9FFF7DDFF7047DF
:102ABC000000002078000020483400087800002036
:102ACC00A4050020FEE70000C3B2222B2DE9F04143
:102ADC000D462AD8274A00F4E06452F823301C43F0
:102AEC00621C44D0244EC4F3031756F8273004F06C
:102AFC000F0823FA08F3DB0710D520461F49FFF710
:102B0C0051F910B12046FEF7EDFE012256F82730A0
:102B1C0002FA08F223EA020346F82730052D15D8ED
:102B2C00DFE805F015211B1D1F2300F0C002C02A91
:102B3C001DD1C92B1BD8124B00F03F0253F8222099
:102B4C000C4B00F4E06453F82230C8E7FEE7002198
:102B5C002046BDE8F041FFF735B91021F8E72021F8
:102B6C00F6E70321F4E70121F2E70921F0E7BDE8DC
:102B7C00F08100BF603300084C0400206431000871
:102B8C0038330008C3B2222B19D8184A00F4E0607D
:102B9C0052F82330184310F0C00F02BF144BC0F38F
:102BAC00031253F82220134B00F00F0053F820307F
:102BBC0018BF0022C3F30F23A9B11361704700F0B3
:102BCC00C002C02A0CD1C92B0AD80B4B00F03F0213
:102BDC0053F82220054B00F4E06053F82230D9E77B
:102BEC004FF0FF30D7E75361704700BF60330008E8
:102BFC00080000206430000838330008C3B2222BD0
:102C0C000BD8194A00F4E06052F82330184310F046
:102C1C00C00F16D000239B68FFDE00F0C002C02A54
:102C2C000CD1C92B0AD8114B00F03F0253F82220CB
:102C3C000D4B00F4E06053F82230E7E74FF0FF3023
:102C4C00E5E70B4BC0F3031253F82230094A9B689B
:102C5C0000F00F0052F82020D84300EA122080B276
:102C6C00B0FA80F040097047603300083833000830
:102C7C000800002064300008FEF786BEFEF760BE38
:102C8C0038B5044648B1FEF77FFE054600F016F84D
:102C9C00FEF77AFE431BA342F8D338BD08B5044BAC
:102CAC002BB10448FFF78CFC08B1AFF3008008BDD2
:102CBC000000000034030020FEF7B2BE7047000095
:102CCC00024B0146186800F02DB800BF2800002008
:102CDC00024B0146186800F0FDB800BF2800002028
:102CEC0070B50F4E0C463168054611B900F0AEF8C0
:102CFC0030602146284600F0A9F8431C03D14FF060
:102D0C00FF34204670BDC41C24F00304A042F8D04C
:102D1C00211A284600F09AF80130F2D1EFE700BFF3
:102D2C005C0400202DE9F843CD1C25F00305083583
:102D3C000C2D38BF0C25002D064601DBA94204D909
:102D4C000C2333600020BDE8F883DFF8D48000F05A
:102D5C0069F8D8F800301C4644BB29463046FFF7CA
:102D6C00BFFF431C044658D1D8F800402746002F1B
:102D7C0043D1002C4BD023683946304604EB030971
:102D8C0000F064F8814542D1216830466D1A29461D
:102D9C00FFF7A6FF01303AD023682B442360D8F804
:102DAC0000305A6862BBC8F800700FE02268521BF2
:102DBC0020D40B2A17D96119A342256018BF59607A
:102DCC00636808BFC8F8001062514B60304600F0D1
:102DDC002FF804F10B00231D20F00700C21A1CBFB2
:102DEC001B1AA350AFE76268A3420CBFC8F80020BF
:102DFC005A60EBE723466468AEE73C467F68B6E76B
:102E0C001A465B68A342FBD100235360DEE70C2318
:102E1C003046336000F00CF894E70560D6E700BF4D
:102E2C0060040020014800F045B800BFA005002058
:102E3C00014800F040B800BFA00500200346024442
:102E4C00934200D1704703F8011BF9E738B5002312
:102E5C00054D044608462B60FFF74AFB431C02D184
:102E6C002B6803B1236038BD9C05002070B500268B
:102E7C000C4D0D4C641BA410A64209D100F0C2F8F5
:102E8C0000260A4D0A4C641BA410A64205D170BD45
:102E9C0055F8043B98470136EEE755F8043B984744
:102EAC000136F2E7283400082834000828340008DA
:102EBC003C340008704770470A44914200F1FF33DC
:102ECC0000D1704710B511F8014B914203F8014F36
:102EDC00F9D110BD38B50546002940D051F8043C55
:102EEC000C1F002BB8BFE418FFF79CFF1C4A13689B
:102EFC0033B9636014602846BDE83840FFF798BFCB
:102F0C00A34208D9206821188B4201BF19685B685D
:102F1C0009182160EDE71A465B680BB1A342FAD998
:102F2C0011685018A0420BD12068014450188342FC
:102F3C001160E0D118685B68084410605360DAE7F0
:102F4C0002D90C232B60D6E7206821188B4201BFD5
:102F5C0019685B680918216063605460CBE738BD61
:102F6C0060040020062008B500F02CF80120FFF7C3
:102F7C00DDFA1F2938B505460C4604D91623036023
:102F8C004FF0FF3038BDC26B12B152F821304BB943
:102F9C00284600F031F8224601462846BDE8384064
:102FAC0000F018B8012B0AD0591C03D1162303606A
:102FBC000120E7E70021204642F824109847002022
:102FCC00E0E70000024B01461868FFF7D2BF00BFD4
:102FDC002800002038B50023064D0446084611464B
:102FEC002B60FFF7A5FA431C02D12B6803B12360B9
:102FFC0038BD00BF9C050020FFF7A2BA08B5FFF74B
:10300C00B1FF0000F8B500BFF8BC08BC9E46704785
:0C301C00F8B500BFF8BC08BC9E46704729
:103028003D3D3D3D3D3D3D3D3D3D3D3D3D3D3D3DC8
:103038003D3D00546573742050726F6772616D6D09
:10304800696E67000D0A00010202030405060708FD
:10305800090A0B0C0D0E0F101000000001010000F2
:10306800020200000404000008080000101000001C
:103078002020000040400000808000000100010482
:1030880002000204040004040800080410001004EC
:10309800200020044000400480008004000000005C
:1030A8000102030400000000000000000102030404
:1030B8000607080900000000004400401200000054
:1030C8000B0000000038014012000000FFFFFFFF66
:1030D8000000000000000000010000000044004063
:1030E800120800000C000000003801401200000027
:1030F800FFFFFFFF000000000000000003000000C9
:1031080000440040100800000A0000000038014098
:1031180010060000170000000038014010050000EC
:10312800FFFFFFFF00000000000000000200000099
:103138000044004012080000090000000038014067
:1031480012060000160000000038014012050000B9
:10315800FFFFFFFF0000000000000000000000006B
:103168000000004012800000000100000000004044
:10317800129000000100000000000040121201003F
:1031880001010000000000401210010002000000D0
:1031980000000040129201000201000000000040FF
:1031A800129101000300000000000040121202000A
:1031B8000301000000000040121102000600000098
:1031C800000400401295000007000000002C014098
:1031D800128D1000070100000004004012150100C4
:1031E80008000000002C0140128E000008010000B9
:1031F800002C0140128D000009000000002C014045
:10320800120E010009010000002C0140120D0100FE
:103218000A000000002C0140128E01000A01000083
:10322800002C0140128D01000B000000002C014011
:10323800120E02000B010000002C0140120D0200CA
:103248000F00000000000040129100000F01000074
:1032580000000040128F000010000000002C014008
:10326800120D110010010000000400401295010029
:103278001002000000040040129401001100000038
:10328800002C0140128D11001101000000040040C3
:10329800121502001102000000040040121402007E
:1032A800130000000000004012110100130100008B
:1032B80000000040120F010014000000000400404C
:1032C80012940000150000000004004012140100D0
:1032D8001A00000000000040129001001A010000CE
:1032E80000000040128F01001B0000000000004099
:1032F800121002001B01000000000040120F020023
:103308001D000000002C0140128E10001E0000005D
:10331800002C0140120E11001F000000002C01407B
:10332800128E1100FFFFFFFF0000000000000000E8
:10333800140000001500000016000000170000002F
:1033480018000000190000001A0000001B0000000F
:103358001C0000001D0000001900000018000000FB
:1033680017000000160000001500000014000000FF
:10337800130000000F0000000C0000000B0000000C
:103388000A00000009000000080000001F000000FB
:103398001E0000001D0000001C0000002D000000A1
:1033A8002E0000002F0000000000000001000000B7
:1033B80002000000030000000400000005000000F7
:1033C80006000000070000001000000011000000C7
:1033D8001A0000001B000000120000000D00000091
:1033E8000E000000060007000800000000000000B2
:1033F8000000000013260008C1260008F725000871
:10340800A3280008CD2500085D290008DD2500084F
:08341800132A0008352A000800
:08342000ECCCFF7F010000006D
:10342800652A00084101000889020008D51A000829
:043438008D290008D2
:0C343C001D010008B1020008AD1B0008D3
:10344800010000001000000000080140000C0140CD
:10345800001001400014014000300240000000004C
:1034680000127A00A80500202C00002000000000AF
:1034780064040020CC040020340500200000000073
:103488000000000000000000000000000000000034
:103498000000000000000000000000000000000024
:1034A8000000000000000000000000000000000014
:0834B80000000000000000000C
:0400000508002A893C
:00000001FF
